:03000000020AFAF7
:0C0AFA00787FE4F6D8FD7581200209D455
:1009D400E4F508F509F50A120B06120A84E5204528
:1009E4001F7005120A3380F5E5206401451F700568
:1009F400120B1D80E8E5206402451F7005120B1CD4
:070A040080DB120B1B80D602
:010B170022BB
:010B180022BA
:030B1100C2962267
:030B1400D2962254
:010B190022B9
:010B1A0022B8
:100A6F00EFD39400400E0000007E0B7DBEDDFEDE56
:040A7F00FC1F80ECEC
:010A83002250
:0C0AED00EFD3940040060000001F80F4CE
:010AF90022DA
:0B0B0600D288D2A8D28AD2AAD2AF2295
:0300030002090FE0
:10090F00C0E0C0F0C083C082C0D075D000C000C0AE
:10091F0001C002C003C004C005C006C00720B23E1C
:10092F007F0A120A6F20B236E51F7029E520146086
:10093F000C1460111460042403701A8010751F00CA
:10094F007520028016751F00752003800E751F001D
:10095F007520018006751F0075200030B2FDD0078D
:10096F00D006D005D004D003D002D001D000D0D013
:09097F00D082D083D0F0D0E03228
:0300130002098857
:10098800C0E0C0F0C083C082C0D075D000C000C035
:1009980001C002C003C004C005C006C00720B311CF
:1009A8007F0A120A6F20B309751F0075200030B343
:1009B800FDD007D006D005D004D003D002D001D096
:0C09C80000D0D0D082D083D0F0D0E0323C
:100A98007580FFC2C2D2C1D2B7AF80C2B7EF20E71C
:010AA800F657
:010AA900222A
:100ACD00AE07120A98C2C2C2C18E80D2B7C2B72277
:100ADD00AE07120A98D2C2C2C18E80D2B7C2B72257
:100AAA00ED7004AC078004EF2440FCEC4480FF02A4
:020ABA000ACD63
:100A5200AE07AC0353050153060FED600343064096
:0D0A6200430680AF06120ACDAF04020ADD84
:100A0B008B1C8A1D891E120AAAAB1CAA1DA91E12B9
:100A1B0008F66013051EE51E7002051D14F9120879
:080A2B00F6FF120ADD80E22251
:100A84007F38120ACD7F0C120ACD7F06120ACD7F61
:040A940001020ACD84
:100ABC002050656368696E20536369656E636520B9
:010ACC000029
:100A3300780B7C007D007BFF7A0A79BC7E007F11F6
:0F0A43001208D07B007A00790BE4FDFF020A0B4A
:010B1B0022B7
:010B1C0022B6
:010B1D0022B5
:10080000E709F608DFFA8046E709F208DFFA803EDA
:1008100088828C83E709F0A3DFFA8032E309F608C7
:10082000DFFA8078E309F208DFFA807088828C832F
:10083000E309F0A3DFFA806489828A83E0A3F608E3
:10084000DFFA805889828A83E0A3F208DFFA804CBD
:1008500080D280FA80C680D4806980F28033801094
:1008600080A680EA809A80A880DA80E280CA8033FD
:1008700089828A83ECFAE493A3C8C582C8CCC58375
:10088000CCF0A3C8C582C8CCC583CCDFE9DEE78045
:100890000D89828A83E493A3F608DFF9ECFAA9F0C4
:1008A000EDFB2289828A83ECFAE0A3C8C582C8CC1A
:1008B000C583CCF0A3C8C582C8CCC583CCDFEADE33
:1008C000E880DB89828A83E493A3F208DFF980CC95
:1008D00088F0EF60010E4E60C388F0ED2402B4048E
:1008E0000050B9F582EB2402B4040050AF23234535
:0608F00082239008507302
:1008F600BB010689828A83E0225002E722BBFE0200
:09090600E32289828A83E4932232
:00000001FF
