:03000000020AD31E
:0C0AD300787FE4F6D8FD75814B020B1A09
:0F10540020496E697420737563636573732000A0
:100D270078087C007D007BFF7A1079547E007F0F66
:100D37001208D0121088120F7A120F567FF4120F72
:100D4700E77FF4120FE7E54A454970051209EF807E
:100D5700F5E54A640145497005120EDA80E8E54A6F
:100D6700640245497005120BD880DB120B5F80D6F1
:03108F00C29622E4
:03109200D29622D1
:100E05007D017F32120CC8E54BD39402500280223B
:100E1500E54BD3940450028023E54BD3940850024C
:100E25008010E54BD3940A50028011E54BD3940C06
:100E3500500302108FE54BC394145003021092E443
:030E4500F54B2248
:100F06007D017F32120CC8E54BD394055002801147
:100F1600E54BD3940F5003021092E54BD394145033
:080F26000302108FE4F54B22D9
:0A107E00E4FD7F32120CC80210924C
:100FE700EFD39400400E0000007E0B7DBEDDFEDED9
:040FF700FC1F80EC6F
:010FFB0022D3
:0C107100EFD3940040060000001F80F444
:01107D002250
:07108800D288D2A8D2AF22EA
:03000300020C519B
:100C5100C0E0C0F0C083C082C0D075D000C000C069
:100C610001C002C003C004C005C006C00720B23CD9
:100C71007F0A120FE720B234E5497027E54A146074
:100C81001214601714601C24037018754900754A0A
:100C9100018016754900754A02800E754900754A32
:100CA100038006754900754A0030B2FDD007D006B1
:100CB100D005D004D003D002D001D000D0D0D08252
:070CC100D083D0F0D0E03237
:101010007580FFC2C2D2C1D2B7AF80C2B7EF20E79E
:01102000F6D9
:0110210022AC
:10103400AE07121010C2C2C2C18E80D2B7C2B7228C
:10104400AE07121010D2C2C2C18E80D2B7C2B7226C
:10102200ED7004AC078004EF2440FCEC4480FF0226
:02103200103478
:100F9D00AE07AC0353050153060FED600343064046
:0D0FAD00430680AF06121034AF040210445A
:100F2E008B238A248925121022AB23AA24A92512E9
:100F3E0008F660130525E5257002052414F912083C
:080F4E00F6FF12104480E222BC
:100FFC007F381210347F0C1210347F061210347F9D
:04100C000102103499
:030EAC00014B00F7
:100CC8008F238D24E4F589AF23FE7C277D1012093C
:100CD8000FE4C39FFFE49EFE74019400FDE49400BA
:100CE800FCE4FB7A01F9F8120DC18F8CAF237E006A
:100CF8007C277D1012090FE4C39FFFE49EFE740158
:100D08009400FDE49400FCE4FB7A01F9F8120DC1AB
:0F0D1800AF038F8AE52424FF928CD2AFD2A92299
:03000B000210954B
:03109500054B32D6
:0E10630081838587898B8D80828486888A8C24
:090EAF00074200001206040919B3
:100E4800C2C400C2A100D2C400E4FEEF1392A2EF14
:100E5800C313FFD2A100C2A1000EBE08EEE4FEED4E
:100E68001392A2EDC313FDD2A100C2A1000EBE08C9
:040E7800EEC2C40002
:010E7C002253
:100D7700C2C400C2A100D2C400E4FDEF1392A2EFE7
:100D8700C313FFD2A100C2A1000DBD08EE00E4FD10
:100D9700A2A2E433FFC43333335480FCEEC3134CB5
:100DA700FED2A100C2A1000DBD08E5C2C400D2A1B8
:090DB70000C2A200D2A200AF06A6
:010DC0002210
:100F7A00E4FD7F8E120E48E4FCEC90106A93FF7435
:100F8A00422CF8E6FD120E480CBC07ED7D807F8EE0
:030F9A00020E48FC
:100FD100E4FBEB90106393FF120D7774422BF8A69C
:050FE100070BBB07ED4A
:010FE60022E8
:100E7D002049444C455F535441544500204144445E
:100E8D005F53544154450020444C455F53544154E5
:0F0E9D00452000204946595F53544154452000D9
:100EB80009262069645F3030302000092F206964DA
:100EC8005F303031200009382069645F30303220CB
:010ED8000019
:1009EF0078177C007D007BFF7A0E797D7E007F0C6F
:1009FF001208D012107E7F011210347B007A00791A
:100A0F0017E4FDFF120F2E120FD1E546C4540F2429
:100A1F0030FB7D017F01120F9DE546540F2430FB03
:100A2F007D017F02120F9D7B2D7D017F03120F9D94
:100A3F00E545C4540F2430FB7D017F04120F9DE563
:100A4F0045540F2430FB7D017F05120F9D7B2D7DBB
:100A5F00017F06120F9DE544C4540F2430FB7D0126
:100A6F007F07120F9DE544540F2430FB7D017F0853
:100A7F00120F9D7B2D7D017F09120F9DE543C454FD
:100A8F000F2430FB7D017F0A120F9DE543540F2485
:100A9F0030FB7D017F0B120F9D7B2D7D017F0C1293
:100AAF000F9DE542C4540F2430FB7D017F0D120FC3
:100ABF009DE542540F2430FB7D017F0E120F9D7F69
:040ACF0032020FE7F9
:100B5F0078177C007D007BFF7A0E79897E007F0BF2
:100B6F001208D012107E7F011210347B007A0079A8
:100B7F0017E4FDFF120F2E20B3257F0A120FE72077
:100B8F00B31DE54124FB600C14600E2402700A753E
:100B9F0041058008754106800375410430B3FDE5BA
:100BAF0041B404087B007A0079268011E5417B006F
:100BBF00B405067A00792F80047A0079387D01E434
:090BCF00FF120F2E7F32020FE726
:100BD80078177C007D007BFF7A0E79947E007F0C6D
:100BE8001208D012107E7F011210347B007A00792F
:100BF80017E4FDFF120F2E20B3257F0A120FE720FE
:100C0800B31DE54124FB600C14600E2402700A75C4
:100C180041058008754106800375410430B3FDE540
:100C280041B404087B007A0079268011E5417B00F5
:100C3800B405067A00792F80047A0079387D01E4BA
:090C4800FF120F2E7F32020FE7AC
:100EDA0078177C007D007BFF7A0E79A07E007F0C5C
:100EEA001208D07F011210347B007A007917E4FDD2
:0C0EFA00FF120F2E7F32120FE7020E05D0
:100F5600E598543F4440F59853A23F538EEF438E95
:100F660001438E0475D6FF75D7E8438E10D29CD206
:040F7600ACD2AF2228
:03002300020FBA0F
:070FBA00C0D075D000C00794
:0B0FC100AF99C2988F993099FDC2993A
:050FCC00D007D0D03277
:100ADF00020D27E493A3F8E493A34003F68001F2F9
:100AEF0008DFF48029E493A3F85407240CC8C33318
:100AFF00C4540F4420C8834004F456800146F6DFE7
:100B0F00E4800B0102040810204080900EACE47EBC
:100B1F00019360BCA3FF543F30E509541FFEE493DB
:100B2F00A360010ECF54C025E060A840B8E493A3A2
:100B3F00FAE493A3F8E493A3C8C582C8CAC583CACD
:100B4F00F0A3C8C582C8CAC583CADFE9DEE780BE85
:010ED9000018
:10080000E709F608DFFA8046E709F208DFFA803EDA
:1008100088828C83E709F0A3DFFA8032E309F608C7
:10082000DFFA8078E309F208DFFA807088828C832F
:10083000E309F0A3DFFA806489828A83E0A3F608E3
:10084000DFFA805889828A83E0A3F208DFFA804CBD
:1008500080D280FA80C680D4806980F28033801094
:1008600080A680EA809A80A880DA80E280CA8033FD
:1008700089828A83ECFAE493A3C8C582C8CCC58375
:10088000CCF0A3C8C582C8CCC583CCDFE9DEE78045
:100890000D89828A83E493A3F608DFF9ECFAA9F0C4
:1008A000EDFB2289828A83ECFAE0A3C8C582C8CC1A
:1008B000C583CCF0A3C8C582C8CCC583CCDFEADE33
:1008C000E880DB89828A83E493A3F208DFF980CC95
:1008D00088F0EF60010E4E60C388F0ED2402B4048E
:1008E0000050B9F582EB2402B4040050AF23234535
:0608F00082239008507302
:1008F600BB010689828A83E0225002E722BBFE0200
:09090600E32289828A83E4932232
:10090F00EF8DF0A4A8F0CF8CF0A428CE8DF0A42EFC
:02091F00FE22B6
:100DC100C2D5E830E70FB2D5E4C39BFBE49AFAE45D
:100DD10099F9E498F8EC30E717B2D5120DF712093A
:100DE1005DE4C39BFBE49AFAE499F9E498F8800383
:100DF10012095D30D50DE4C39FFFE49EFEE49DFD25
:040E0100E49CFC224F
:1009210075F008758200EF2FFFEE33FECD33CDCC8D
:1009310033CCC58233C5829BED9AEC99E582984010
:100941000CF582EE9BFEED9AFDEC99FC0FD5F0D6ED
:10095100E4CEFBE4CDFAE4CCF9A88222B800C1B917
:100961000059BA002DEC8BF084CFCECDFCE5F0CB55
:10097100F97818EF2FFFEE33FEED33FDEC33FCEB8E
:1009810033FB10D703994004EB99FB0FD8E5E4F949
:10099100FA227818EF2FFFEE33FEED33FDEC33FC36
:1009A100C933C910D7059BE99A4007EC9BFCE99A2A
:1009B100F90FD8E0E4C9FAE4CCFB2275F010EF2F6F
:1009C100FFEE33FEED33FDCC33CCC833C810D7076F
:1009D1009BEC9AE899400AED9BFDEC9AFCE899F8AA
:0E09E1000FD5F0DAE4CDFBE4CCFAE4C8F9223D
:00000001FF
