:03000000020800F3
:0C080000787FE4F6D8FD758119020847E6
:1009080011082050656368696E20536369656E63DA
:0309180065200057
:1008AA0012088CE4F51974082519F8E6FF1208DC19
:0B08BA000519E519C3941040ED80FE05
:01092F0022A5
:0109300022A4
:03092900C2962251
:03092C00D296223E
:0109310022A3
:0109320022A2
:1008F300EFD39400400E0000007E0B7DBEDDFEDED4
:04090300FC1F80EC69
:0109070022CD
:0C091C00EFD3940040060000001F80F4A0
:0109280022AC
:1008C500C2B7C2C2C2C18F807F011208F3D2B77FFF
:0708D500051208F3C2B7226F
:1008DC00C2B7D2C2C2C18F807F011208F3D2B77FD8
:0708EC00051208F3C2B72258
:10088C007F321208C57F281208C57F0C1208C57F5D
:0E089C00061208C57F011208C57F800208C53C
:10080C000208AAE493A3F8E493A34003F68001F250
:10081C0008DFF48029E493A3F85407240CC8C333ED
:10082C00C4540F4420C8834004F456800146F6DFBC
:10083C00E4800B0102040810204080900908E47E3B
:10084C00019360BCA3FF543F30E509541FFEE493B1
:10085C00A360010ECF54C025E060A840B8E493A378
:10086C00FAE493A3F8E493A3C8C582C8CAC583CAA3
:10087C00F0A3C8C582C8CAC583CADFE9DEE780BE5B
:01091B0000DB
:00000001FF
