:03000000020A9B56
:0C0A9B00787FE4F6D8FD75811E0209BBCF
:1009BB00E4F508F509F50A120AA7120A1CE51E450B
:1009CB001D70051209F280F5E51E6401451D7005C9
:1009DB00120ABE80E8E51E6402451D7005120ABDB1
:0709EB0080DB120ABC80D67C
:030AB200C29622C7
:030AB500D29622B4
:010AB800221B
:010AB900221A
:100A6800EFD39400400E0000007E0B7DBEDDFEDE5D
:040A7800FC1F80ECF3
:010A7C002257
:0C0A8E00EFD3940040060000001F80F42D
:010A9A002239
:0B0AA700D288D2A8D28AD2AAD2AF22F5
:030003000208F6FA
:1008F600C0E0C0F0C083C082C0D075D000C000C0C8
:1009060001C002C003C004C005C006C00720B23E35
:100916007F0A120A6820B236E51D7029E51E1460AA
:100926000C1460111460042403701A8010751D00E5
:10093600751E028016751D00751E03800E751D003E
:10094600751E018006751D00751E0030B2FDD007AC
:10095600D006D005D004D003D002D001D000D0D02C
:09096600D082D083D0F0D0E03241
:0300130002096F70
:10096F00C0E0C0F0C083C082C0D075D000C000C04E
:10097F0001C002C003C004C005C006C00720B311E8
:10098F007F0A120A6820B309751D00751E0030B367
:10099F00FDD007D006D005D004D003D002D001D0AF
:0C09AF0000D0D0D082D083D0F0D0E03255
:100A3A00C2B7C2C2C2C18F807F01120A68D2B77F11
:070A4A0005120A68C2B72281
:100A5100C2B7D2C2C2C18F807F01120A68D2B77FEA
:070A610005120A68C2B7226A
:100A1C007F32120A3A7F28120A3A7F0C120A3A7F66
:0E0A2C0006120A3A7F01120A3A7F80020A3A45
:010ABA002219
:010ABB002218
:100A7D002050656368696E20536369656E636520F8
:010A8D000068
:1009F200780C7C007D007BFF7A0A797D7E007F1176
:100A02001208D0E4F50B740C250BF8E6FF120A511C
:090A1200050BE50BC3941040ED47
:010A1B0022B8
:010ABC002217
:010ABD002216
:010ABE002215
:10080000E709F608DFFA8046E709F208DFFA803EDA
:1008100088828C83E709F0A3DFFA8032E309F608C7
:10082000DFFA8078E309F208DFFA807088828C832F
:10083000E309F0A3DFFA806489828A83E0A3F608E3
:10084000DFFA805889828A83E0A3F208DFFA804CBD
:1008500080D280FA80C680D4806980F28033801094
:1008600080A680EA809A80A880DA80E280CA8033FD
:1008700089828A83ECFAE493A3C8C582C8CCC58375
:10088000CCF0A3C8C582C8CCC583CCDFE9DEE78045
:100890000D89828A83E493A3F608DFF9ECFAA9F0C4
:1008A000EDFB2289828A83ECFAE0A3C8C582C8CC1A
:1008B000C583CCF0A3C8C582C8CCC583CCDFEADE33
:1008C000E880DB89828A83E493A3F208DFF980CC95
:1008D00088F0EF60010E4E60C388F0ED2402B4048E
:1008E0000050B9F582EB2402B4040050AF23234535
:0608F00082239008507302
:00000001FF
