:030000000209F002
:0C09F000787FE4F6D8FD75812E020A37EE
:0F0DAD0020496E6974207375636365737320004A
:100AF50078087C007D007BFF7A0D79AD7E007F0F45
:100B05001208D0120DD7120D55120CEA7B007A008F
:100B15007908E4FDFF120CC27FF4120D407FF41238
:100B25000D40E52E452D700512090F80F5E52E6463
:100B350001452D7005120C9980E8E52E6402452DBE
:0C0B45007005120C7080DB120C4780D68B
:010DF20022DE
:010DF30022DD
:030DEC00C296228A
:030DEF00D2962277
:010DF40022DC
:010DF50022DB
:100D4000EFD39400400E0000007E0B7DBEDDFEDE82
:040D5000FC1F80EC18
:010D5400227C
:0C0DCA00EFD3940040060000001F80F4EE
:010DD60022FA
:0B0DD700D288D2A8D28AD2AAD2AF22C2
:03000300020A7C72
:100A7C00C0E0C0F0C083C082C0D075D000C000C040
:100A8C0001C002C003C004C005C006C00720B23EAE
:100A9C007F0A120D4020B236E52D7029E52E146028
:100AAC000C1460111460042403701A8010752D004E
:100ABC00752E028016752D00752E03800E752D0077
:100ACC00752E018006752D00752E0030B2FDD007F5
:100ADC00D006D005D004D003D002D001D000D0D0A5
:090AEC00D082D083D0F0D0E032BA
:03001300020B518C
:100B5100C0E0C0F0C083C082C0D075D000C000C06A
:100B610001C002C003C004C005C006C00720B31104
:100B71007F0A120D4020B309752D00752E0030B388
:100B8100FDD007D006D005D004D003D002D001D0CB
:0C0B910000D0D0D082D083D0F0D0E03271
:100D69007580FFC2C2D2C1D2B7AF80C2B7EF20E748
:010D7900F683
:010D7A002256
:100D8D00AE07120D69C2C2C2C18E80D2B7C2B722E0
:100D9D00AE07120D69D2C2C2C18E80D2B7C2B722C0
:100D7B00ED7004AC078004EF2440FCEC4480FF02D0
:020D8B000D8DCC
:100D0D00AE07AC0353050153060FED6003430640D8
:0D0D1D00430680AF06120D8DAF04020D9D40
:100CC2008B238A248925120D7BAB23AA24A9251202
:100CD20008F660130525E5257002052414F91208AB
:080CE200F6FF120D9D80E222D5
:100D55007F38120D8D7F0C120D8D7F06120D8D7F44
:040D650001020D8DED
:0E0DBC0081838587898B8D80828486888A8CCE
:090DE2000726000012060409199D
:100BE700C2C400C2A100D2C400E4FEEF1392A2EF78
:100BF700C313FFD2A100C2A1000EBE08EEE4FEEDB2
:100C07001392A2EDC313FDD2A100C2A1000EBE082C
:040C1700EEC2C40065
:010C1B0022B6
:100B9D00C2C400C2A100D2C400E4FDEF1392A2EFC3
:100BAD00C313FFD2A100C2A1000DBD08EE00E4FDEC
:100BBD00A2A2E433FFC43333335480FCEEC3134C91
:100BCD00FED2A100C2A1000DBD08E5C2C400D2A194
:090BDD0000C2A200D2A200AF0682
:010BE60022EC
:100CEA00E4FD7F8E120BE7E4FCEC900DC393FF74D6
:100CFA00262CF8E6FD120BE70CBC07ED7D807F8EF3
:030D0A00020BE7F2
:100D2A00E4FBEB900DBC93FF120B9D74262BF8A6E7
:050D3A00070BBB07EDF3
:010D3F002291
:100C1C002049444C455F53544154450020414444C1
:100C2C005F535441544500444C455F535441544523
:0B0C3C00004946595F535441544500E5
:10090F0078177C007D007BFF7A0C791C7E007F0CB2
:10091F001208D07F01120D8D7B007A007917E4FD4C
:10092F00FF120CC2120D2AE52AC4540F2430FB7D8E
:10093F00017F01120D0DE52A540F2430FB7D017F3D
:10094F0002120D0D7B2D7D017F03120D0DE529C4C4
:10095F00540F2430FB7D017F04120D0DE529540F38
:10096F002430FB7D017F05120D0D7B2D7D017F0650
:10097F00120D0DE528C4540F2430FB7D017F0712A3
:10098F000D0DE528540F2430FB7D017F08120D0D4E
:10099F007B2D7D017F09120D0DE527C4540F2430E7
:1009AF00FB7D017F0A120D0DE527540F2430FB7DCF
:1009BF00017F0B120D0D7B2D7D017F0C120D0DE5AF
:1009CF0026C4540F2430FB7D017F0D120D0DE5263B
:1009DF00540F2430FB7D017F0E120D0D7F32020D5F
:0109EF0040C7
:100C470078177C007D007BFF7A0C79287E007F0B6C
:100C57001208D07F01120D8D7B007A007917E4FD11
:090C6700FF120CC27F32020D40A5
:100C700078177C007D007BFF7A0C79337E007F0A39
:100C80001208D07F01120D8D7B007A007917E4FDE8
:090C9000FF120CC27F32020D407C
:100C990078177C007D007BFF7A0C793D7E007F0A06
:100CA9001208D07F01120D8D7B007A007917E4FDBF
:090CB900FF120CC27F32020D4053
:1009FC00020AF5E493A3F8E493A34003F68001F212
:100A0C0008DFF48029E493A3F85407240CC8C333FB
:100A1C00C4540F4420C8834004F456800146F6DFCA
:100A2C00E4800B0102040810204080900DE2E47E6B
:100A3C00019360BCA3FF543F30E509541FFEE493BF
:100A4C00A360010ECF54C025E060A840B8E493A386
:100A5C00FAE493A3F8E493A3C8C582C8CAC583CAB1
:100A6C00F0A3C8C582C8CAC583CADFE9DEE780BE69
:010DEB000007
:10080000E709F608DFFA8046E709F208DFFA803EDA
:1008100088828C83E709F0A3DFFA8032E309F608C7
:10082000DFFA8078E309F208DFFA807088828C832F
:10083000E309F0A3DFFA806489828A83E0A3F608E3
:10084000DFFA805889828A83E0A3F208DFFA804CBD
:1008500080D280FA80C680D4806980F28033801094
:1008600080A680EA809A80A880DA80E280CA8033FD
:1008700089828A83ECFAE493A3C8C582C8CCC58375
:10088000CCF0A3C8C582C8CCC583CCDFE9DEE78045
:100890000D89828A83E493A3F608DFF9ECFAA9F0C4
:1008A000EDFB2289828A83ECFAE0A3C8C582C8CC1A
:1008B000C583CCF0A3C8C582C8CCC583CCDFEADE33
:1008C000E880DB89828A83E493A3F208DFF980CC95
:1008D00088F0EF60010E4E60C388F0ED2402B4048E
:1008E0000050B9F582EB2402B4040050AF23234535
:0608F00082239008507302
:1008F600BB010689828A83E0225002E722BBFE0200
:09090600E32289828A83E4932232
:00000001FF
