:03000000020BEF01
:0C0BEF00787FE4F6D8FD758120020C36FA
:0F12170020496E697420737563636573732000DB
:0509FC004200B0000004
:1007AC0078587C007D017BFF7A1279177E007F0FD1
:1007BC0012055D1212411212551211AB1210D31206
:1007CC001195E4900056F0A3F07FF41210FD121076
:1007DC00A5500BC2967FF41210FDD296801D90008E
:1007EC0057E004F07006900056E004F0C3900057F8
:1007FC00E09406900056E0940040CE7B017A00799C
:10080C0058E4FDFF120FD67FF41210FD7FF4121086
:10081C00FD9000B0E07002A3E0700512000E80F1B4
:10082C009000B0E07004A3E06401700512087580BC
:10083C00E09000B0E07004A3E0640270051203398C
:10084C0080CF9000B0E07004A3E064037005120D3B
:10085C009080BE9000B0E07004A3E06404700512B8
:09086C0005C880AD1206C880A881
:1010FD00E4FDFCEFFBC3ED9B7480F86C985012007F
:10110D0000007E0B7BBEDBFEDEFC0DBD00010C8006
:01111D00E2EF
:01111E0022AE
:0C123400EFD3940040060000001F80F47F
:01124000228B
:07125500D288D2A8D2AF221B
:03000300020C7B71
:100C7B00C0E0C0F0C083C082C0D075D000C000C03F
:100C8B0001C002C003C004C005C006C00720B2519A
:100C9B007F0A1210FD20B2499000B0E0FEA3E0FFE6
:100CAB00EE7034EF14601814602224FE601314608D
:100CBB0026240570229000B0E4F0A304F0801F807E
:100CCB000B9000B0E4F0A37405F080129000B0E438
:100CDB00F0A37402F080079000B0E4F0A3F030B200
:100CEB00FDD007D006D005D004D003D002D001D060
:0C0CFB0000D0D0D082D083D0F0D0E03206
:050A01004200B20000FC
:0B124100D2A9758A97758CBDD28C2253
:03000B0002111FC0
:10111F00C0E0C083C082758A97758CBD9000B3E024
:10112F0004F070069000B2E004F0D082D083D0E0DB
:01113F00327D
:0E12260081838587898B8D80828486888A8C5F
:0A0A06004700A900001206040919B8
:100F9F00C2C400C2A100D2C400E4FEEF1392A2EFBC
:100FAF00C313FFD2A100C2A1000EEEB408EDE4FE00
:100FBF00ED1392A2EDC313FDD2A100C2A1000EEE5C
:060FCF00B408EDC2C400ED
:010FD50022F9
:100ED900C2C400C2A100D2C400E4FDEF1392A2EF84
:100EE900C313FFD2A100C2A1000DEDB408ED00E4C7
:100EF900FDA2A2E433FFC43333335480FCEEC313A1
:100F09004CFED2A100C2A1000DEDB408E4C2C40098
:0B0F1900D2A100C2A200D2A200AF06CD
:010F240022AA
:1010D300E4FD7F8E120F9FE4FCEC90122D93FF74BE
:1010E300A92CF582E43400F583E0FD120F9F0CEC8C
:0A10F300B407E67D807F8E020F9F98
:10114000E4FBEB90122693FF120ED974A92BF582C3
:0C115000E43400F583EFF00BEBB407E68D
:01115C002270
:100E7400640068006D004F4B2100636C6561725F14
:100E8400616C6C002E2020002E2E20002049444C42
:100E9400455F535441544500204144445F535441F9
:100EA40054450020444C455F535441544520002090
:100EB4004946595F53544154452000696E70757416
:100EC40020707764203A00202020202020206572A2
:050ED400726F722100A5
:100A10004100A6004100A8044100A70049008B2026
:100A200069645F30303020004900942069645F3091
:100A30003031200049009D2069645F303032200051
:050A40004200890000E6
:10000E0078677C007D017BFF7A0E79907E007F0CF5
:10001E0012055D7F011211D17B017A007967E4FD33
:10002E00FF120FD61211409000ADE0C4540F2430D1
:10003E00FB7D017F0112117A9000ADE0540F243048
:10004E00FB7D017F0212117A7B2D7D017F03121140
:10005E007A9000ACE0C4540F2430FB7D017F041273
:10006E00117A9000ACE0540F2430FB7D017F051215
:10007E00117A7B2D7D017F0612117A9000ABE0C4C0
:10008E00540F2430FB7D017F0712117A9000ABE0F4
:10009E00540F2430FB7D017F0812117A7B2D7D01D8
:1000AE007F0912117A9000AAE0C4540F2430FB7D10
:1000BE00017F0A12117A9000AAE0540F2430FB7DC2
:1000CE00017F0B12117A7B2D7D017F0C12117A901C
:1000DE0000A9E0C4540F2430FB7D017F0D12117A6C
:1000EE009000A9E0540F2430FB7D017F0E12117A8F
:1000FE0020B32E7F0A1210FD20B3269000A6E01426
:10010E00600F146014240270109000A67401F08029
:10011E000D9000A67402F08005E49000A6F030B3B6
:10012E00FD20B4597F0A1210FD20B45112100C306C
:10013E00B4FD9000A6E014602014602824027037ED
:10014E009000ACE0D3941D500280229000ADE004EC
:10015E00F09000AC7401F0801E9000ABE0D39432AE
:10016E00501580099000AAE0D3943A5005E004F0AF
:10017E008005E49000AAF0120F671210D39000A62B
:10018E00E014600F1460142402701F7BFF7A0E7946
:10019E0074800E7BFF7A0E797680067BFF7A0E795D
:1001AE0078E4FD7F0F120FD68005E49000A6F07F55
:0401BE00320210FDFC
:1006C80078677C007D017BFF7A0E799C7E007F0B2A
:1006D80012055D7F011211D17B017A007967E4FD73
:1006E800FF120FD620B3487F0A1210FD20B34090A6
:1006F80000A8E024FB600E14601924027022900008
:10070800A8740580209000A87406F0900000740278
:10071800F080199000A87404F0E4900000F0800CB8
:100728009000A87404F09000007401F030B3FD90BC
:1007380000A8E0B404087B017A00798B801390004C
:10074800A8E07B01B405067A00799480047A0079E0
:100758009D7D01E4FF120FD620B4447F0A1210FDDC
:1007680020B43C30B4FD1210A55034900000E0C312
:10077800940A502B120AB8EF64017023900000E02D
:1007880004FF1210405018900000E004F07BFF7A3C
:100798000E797A7D017F0A120FD67FD01210FD7F65
:0407A800320210FD0C
:1005C80078677C007D017BFF7A0E79A77E007F0C1F
:1005D80012055D7F011211D17B017A007967E4FD74
:1005E800FF120FD620B3597F0A1210FD20B3519085
:1005F80000A8E024FB601114601C1460262403701A
:10060800309000A87405802E9000A87406F0900021
:10061800007402F080279000A87407F0E4900000AE
:10062800F0801A9000A87404F0900000740AF0801A
:100638000C9000A87404F09000007401F030B3FD31
:100648009000A8E0B404087B017A00798B8024909C
:1006580000A8E0B405087B017A0079948015900021
:10066800A8E0B406087B017A00799D80067BFF7AB2
:100678000E797E7D01E4FF120FD620B43E7F0A1268
:1006880010FD20B43630B4FD9000A8E024FC24FD11
:100698005029600280171212077BFF7A0E797A7D43
:1006A800017F0C120FD67FDC1210FD800E900053D4
:1006B800E02430FB7D017F0412117A7F320210FDA5
:1008750078677C007D017BFF7A0E79B37E007F0C63
:1008850012055D7F011211D17B017A007967E4FDC4
:10089500FF120FD612124CEF7003020935120F2505
:1008A500900053EFF0C394014055E0D394A2504F0C
:1008B500C2967FE81210FDD2967FE81210FD9000D7
:1008C50053E024FE600F146014240270247B017A27
:1008D50000798B800E7B017A00799480067B017A02
:1008E50000799D7D01E4FF120FD67FDC1210FD809B
:1008F5000E900053E02430FB7D017F0412117A90A5
:100905000053E0F4702AC2967F641210FDD2967FE0
:10091500641210FDC2967F641210FDD2967F641298
:1009250010FDC2967F641210FDD2967F641210FDF1
:050935007F320210FDFD
:1003390078677C007D017BFF7A0E79BF7E007F0C98
:1003490012055D7F011211D17B017A007967E4FD05
:10035900FF120FD6900089E07004A3E064036003E4
:10036900120B5A9000B4E0FEA3E0FF4E701090000B
:1003790089E07002A3E0700690008902046BEF64C3
:10038900014E7020900089E07002A3E07016900081
:1003990089F0A304F09000B4A3E02430FB7D017F31
:1003A900010204459000B4E07004A3E064017016F2
:1003B900900089E07004A3E06401700A900089F05C
:1003C900A304F00204889000B4E0FEA3E0FF6403F4
:1003D9004E701E900089E07004A3E06401701290D1
:1003E9000089F0A37402F0EF2430FB7D017F0280C5
:1003F9004B9000B4E07004A3E06403701690008988
:10040900E07004A3E06402700A900089F0A374020A
:10041900F0806C9000B4E0FEA3E0FF64044E70210C
:10042900900089E07004A3E064027015900089F0DF
:10043900A37403F0EF2430FB7D017F0312117A804E
:1004490039900089E07004A3E064039000B070174C
:10045900F0A37404F0900089E4F0A37403F0E4902D
:1004690000B4F0A3F08018E4F0A37403F0E4900062
:1004790089F0A3F09000B4F0A3F07FF41210FD7F8F
:04048900320210FD2E
:100D900078687C007D017BFF7A0E79CB7E007F0E28
:100DA00012055D7F011211D17B017A007968E4FDA3
:100DB000FF120FD6E4900067F0900067E0FFC39445
:100DC00009503BEF75F00384E5F0700B7BFF7A0E62
:100DD00079887D01FF8017900067E075F00384AF8C
:100DE000F0BF01127BFF7A0E798C7D017F01120F1B
:100DF000D67FE81210FD900067E004F080BBE4901D
:050E000000B0F0A3F0BA
:010E050022CA
:10100C00E4FFFE74A92FF58274003EF583E0FDC465
:10101C00540F75F00AA4FCED540F2CFD74A92FF598
:10102C008274003EF583EDF00FBF00010EEF6407F4
:03103C004E70D023
:01103F00228E
:100F6700E4FFFE74A92FF58274003EF583E0FD755A
:100F7700F00A84C454F0FCED75F00A84EC25F0FD0A
:100F870074A92FF58274003EF583EDF00FBF0001C1
:070F97000EEF64074E70CC61
:010F9E002230
:100B5A0043B06053B0E7E5B05460FF900074E4F02E
:100B6A00A3EFF0900074E0FEA3E0FF64604E6074AF
:100B7A00EF64604E606E7F0A1210FD900074E0FE12
:100B8A00A3E0FFEE701CEF24E0600E24E0701390E7
:100B9A0000B4E4F0A304F080099000B4E4F0A37474
:100BAA0002F053B09F43B0187F0A1210FDE5B0540B
:100BBA0018FF7E00EE7028EF24F060152408701FDD
:100BCA009000B4E0FFA3E09000B4CFF0A3EFF08070
:100BDA000E9000B5E02402F09000B4E03400F0E496
:040BEA00900073F014
:010BEE0022E4
:10093A001001FFFFFFFF0100071200000000001A6C
:10094A000C01FFFFFFFF01000301000500000D017C
:10095A00FFFFFFFF01000402010008000D01FFFF75
:10096A00FFFF01000402020009001101FFFFFFFF5F
:10097A000100080401000000650073000C01FFFF7C
:10098A00FFFF01000305000900000F01FFFFFFFF41
:10099A0001000606020000000F000D01FFFFFFFF25
:1009AA000100041900001E002D01FFFFFFFF0100D6
:1009BA0024180000000000000000000000000000F1
:1009CA00000000000000000000000000000000001D
:1009DA00000000003D001001FFFFFFFF0100070CAF
:1009EA000000000100150C01FFFFFFFF0100030DCD
:0209FA000011EA
:100A450041005400410000004100530042005100A4
:100A550000C100C101C1025000411001FFFFFFFFAD
:100A65000100071300000000001B41005500604015
:100A75000001000000000000000000000000000070
:100A85000000000000000000000000000000000061
:100A95000000000000000000000000000000000051
:100AA5000000000000000000000000000000000041
:020AB50000003F
:09124C0030A5037F01227F00227E
:0B0D0700900080EBF0A3EAF0A3E9F0FD
:100D1200E4A3F0A3F0A3F0A3F0A3F0A3F07FEF12FB
:100D2200115D7F641212347F0112115D7F64121211
:100D320034900080E0FBA3E0FAA3E0F9120583FF00
:100D4200900081E475F00112059C900081E475F039
:100D52000112059CEF14900083F0900083E064017F
:100D62006029900080E0FBA3E475F0011205B2A9AE
:100D7200F0FA120583900085F0E0FF12115D7F64A6
:0D0D8200121234900083E014F080CF7F0146
:010D8F002241
:0401C2007BFF7D3C06
:0E01C600900076EBF0A3EAF0A3E9F0A3EDF0D1
:1001D400E4A3F0A3F0A3F0A3F0A3F0A3F0C203C23E
:1001E40004C205900076E0FBA3E0FAA3E0F9120D47
:1001F40007D203E4900055F07B4074002BF582E4B1
:100204003400F583E4F0DBF2200303020336C20377
:10021400C204C205E4FB9000B2F0A3F0E59A20E02A
:100224000302031390007AE59BF0539AFEE0FFB4B7
:10023400EF1220040FE4FB900001EFF090007E74B5
:1002440001F080D890007EE0FF6401702E90007A67
:10025400E0FE6401600EE490007EF0C203C204C2BA
:1002640005FB80B890007E7402F00B74012BF582BC
:10027400E43400F583EEF0D20480A1EF640260035D
:100284000203132004030203130B90007AE0FF74AB
:10029400012BF582E43400F583EFF0EBC3940640C0
:1002A4001474012BF582E43400F583E0FF90007FA1
:1002B400E0FEEF2EF0EBB4080A900009E090007D18
:1002C400F0D20530054990007DE02408FFE433FEB8
:1002D400EB6F7001EE703874002BF582E43400F596
:1002E40083E0FF90007FE0C39FFF74012BF582E45D
:1002F4003400F583E0FEC3EF9EFF90007FF0EE6FC5
:100304006004C2038002D203E490007EF0801E9059
:100314000079E0FFD39000B3E09F9000B2E0940036
:10032400500BEB943F50062000030202209000552E
:04033400EBF0A20345
:0103380022A2
:1010A500E4900072F07B017A0079417D141201C64B
:1010B500500F900055E0B40B0890000AE07002D381
:0D10C50022900072E004F0E0C3940240D8D5
:0110D20022FB
:101207007FC81210FD7BFF7A0979F07D320201C693
:100E0600900075EFF07BFF7A09794A7D591201C689
:100E16005056900055E0640B704E90000AE0704802
:100E2600900075E06401701C7A0979581201C2506D
:100E360010900055E0B40B0990000AE070037F01A2
:100E4600227F0022900075E06402701F7A0979669D
:100E56001201C25010900055E0B40B0990000AE050
:0E0E660070037F01227F00227F00227F002286
:101074007BFF7A0979747D3C1201C6502290005599
:10108400E0B40F1B90000AE07015A3E0FEA3E07C1F
:10109400002400FFEC3E900051F0A3EFF0D322C3F4
:0110A4002229
:100F2500E4900073F0A3F0900074E0C39414502F84
:100F35007F01120E06BF0117121074E433FF9000F3
:100F450073F0BF0107900051A3E0FF227FFF2290BD
:100F55000074E004F0900054E060CCE4F0FF227FE0
:010F6500008B
:010F66002268
:10104000E4FEEE90099493FD74012EF582E43400E1
:10105000F583EDF00EEEB410E990000DEFF0900086
:101060000FE02FF07B017A0079017D461201C65016
:031070000122C397
:01107300225A
:100AB800E4900072F0A3F07F01120E06900072EF2E
:100AC800F0BF010EE4A3F0C2967F641210FDD29627
:100AD8008013900072E070DFA3E004F0E0C3942874
:100AE80040D57F00227FD01210FD7F02120E0690A3
:100AF8000072EFF0640170467BFF7A0979867D28E1
:100B08001201C65012900055E0B40B0B90000AE099
:100B18007005FE7F0180047E007F00EF64014E7047
:100B28001AC2967FE81210FDD2967FE81210FDC215
:100B3800967FE81210FDD2967F01227F0022900056
:100B480072E0B401A5A3E004F0E0C39419409B7FD0
:010B5800009C
:010B59002279
:1011BF007580FFC2C2D2C1D2B7AF80C2B7EF20E7EE
:0111CF00F629
:0111D00022FC
:1011D100AE071211BFC2C2C2C1AF068F80D2B7C261
:0211E100B72233
:1011E300AE071211BFD2C2C2C1AF068F80D2B7C23F
:0211F300B72221
:1011F500ED7004AC078004EF2440FCEC4480FF0252
:0212050011D105
:10117A00ED5401FDEF540FFFED6004EF4440FFEF23
:0B118A004480FF1211D1AF030211E3FB
:100FD600900076EBF0A3EAF0A3E9F01211F5900089
:100FE60076E0FBA3E0FAA3E0F91205836017900010
:100FF60076A3E475F0011205B2A9F0FA120583FF93
:061006001211E380D92263
:1011AB007F381211D17F0C1211D17F061211D17F12
:0411BB00010211D14B
:10119500538EEF438E01438E0475D6FF75D7D0432A
:0611A5008E10439A102297
:10115D008F9BE59A70047F0180027F00EF20E1F202
:0D116D007F0A121234539AFD7F14021234CF
:100BFB000207ACE493A3F8E493A34003F68001F25D
:100C0B0008DFF48029E493A3F85407240CC8C333FA
:100C1B00C4540F4420C8834004F456800146F6DFC9
:100C2B00E4800B01020408102040809009FCE47E54
:100C3B00019360BCA3FF543F30E509541FFEE493BE
:100C4B00A360010ECF54C025E060A840B8E493A385
:100C5B00FAE493A3F8E493A3C8C582C8CAC583CAB0
:100C6B00F0A3C8C582C8CAC583CADFE9DEE780BE68
:010AB700003E
:10048D00E709F608DFFA8046E709F208DFFA803E51
:10049D0088828C83E709F0A3DFFA8032E309F6083E
:1004AD00DFFA8078E309F208DFFA807088828C83A6
:1004BD00E309F0A3DFFA806489828A83E0A3F6085A
:1004CD00DFFA805889828A83E0A3F208DFFA804C34
:1004DD0080D280FA80C680D4806980F2803380100B
:1004ED0080A680EA809A80A880DA80E280CA803374
:1004FD0089828A83ECFAE493A3C8C582C8CCC583EC
:10050D00CCF0A3C8C582C8CCC583CCDFE9DEE780BB
:10051D000D89828A83E493A3F608DFF9ECFAA9F03A
:10052D00EDFB2289828A83ECFAE0A3C8C582C8CC90
:10053D00C583CCF0A3C8C582C8CCC583CCDFEADEA9
:10054D00E880DB89828A83E493A3F208DFF980CC0B
:10055D0088F0EF60010E4E60C388F0ED2402B40404
:10056D000050B9F582EB2402B4040050AF232345AB
:06057D0082239004DD73EF
:10058300BB010689828A83E0225002E722BBFE0276
:09059300E32289828A83E49322A9
:10059C00C5F0F8A3E028F0C5F0F8E58215827002EA
:0605AC001583E038F02287
:1005B200A3F8E0C5F025F0F0E582158270021583FC
:0605C200E0C838F0E82259
:00000001FF
