:03000000020AD31E
:0C0AD300787FE4F6D8FD75814B020B1A09
:0F10280020496E697420737563636573732000CC
:100CC80078087C007D007BFF7A1079287E007F0FF2
:100CD8001208D0121081120FD0120F651210377B34
:100CE800007A007908E4FDFF120F3D7FF4120FBB74
:100CF8007FF4120FBBE54A454970051209EF80F5EC
:100D0800E54A640145497005120EE980E8E54A6440
:0F0D18000245497005120BD880DB120B5F80D6A5
:03108800C29622EB
:03108B00D29622D8
:100E14007D017F32120D27E54BD3940250028022CC
:100E2400E54BD3940450028023E54BD3940850023D
:100E34008010E54BD3940A50028011E54BD3940CF7
:100E44005003021088E54BC39414500302108BE442
:030E5400F54B2239
:100F15007D017F32120D27E54BD3940550028011D8
:100F2500E54BD3940F500302108BE54BD39414502B
:080F350003021088E4F54B22D1
:0A107700E4FD7F32120D2702108BFA
:100FBB00EFD39400400E0000007E0B7DBEDDFEDE05
:040FCB00FC1F80EC9B
:010FCF0022FF
:0C105400EFD3940040060000001F80F461
:01106000226D
:07108100D288D2A8D2AF22F1
:03000300020C519B
:100C5100C0E0C0F0C083C082C0D075D000C000C069
:100C610001C002C003C004C005C006C00720B23CD9
:100C71007F0A120FBB20B234E5497027E54A1460A0
:100C81001214601714601C24037018754900754A0A
:100C9100018016754900754A02800E754900754A32
:100CA100038006754900754A0030B2FDD007D006B1
:100CB100D005D004D003D002D001D000D0D0D08252
:070CC100D083D0F0D0E03237
:100FE4007580FFC2C2D2C1D2B7AF80C2B7EF20E7CB
:010FF400F606
:010FF50022D9
:10100800AE07120FE4C2C2C2C18E80D2B7C2B722E5
:10101800AE07120FE4D2C2C2C18E80D2B7C2B722C5
:100FF600ED7004AC078004EF2440FCEC4480FF0253
:021006001008D0
:100F8800AE07AC0353050153060FED60034306405B
:0D0F9800430680AF06121008AF04021018C7
:100F3D008B238A248925120FF6AB23AA24A9251207
:100F4D0008F660130525E5257002052414F912082D
:080F5D00F6FF12101880E222D9
:100FD0007F381210087F0C1210087F061210087F4D
:040FE00001021008F2
:030EBB00014B00E8
:100D27008F238D24E4F589AF23FE7C277D101209DC
:100D37000FE4C39FFFE49EFE74019400FDE494005A
:100D4700FCE4FB7A01F9F8120DD08F8CAF237E00FB
:100D57007C277D1012090FE4C39FFFE49EFE7401F8
:100D67009400FDE49400FCE4FB7A01F9F8120DD03D
:0F0D7700AF038F8AE52424FF928CD2AFD2A9223A
:03000B0002108E52
:03108E00054B32DD
:0E10460081838587898B8D80828486888A8C41
:090EBE00074200001206040919A4
:100E5700C2C400C2A100D2C400E4FEEF1392A2EF05
:100E6700C313FFD2A100C2A1000EBE08EEE4FEED3F
:100E77001392A2EDC313FDD2A100C2A1000EBE08BA
:040E8700EEC2C400F3
:010E8B002244
:100D8600C2C400C2A100D2C400E4FDEF1392A2EFD8
:100D9600C313FFD2A100C2A1000DBD08EE00E4FD01
:100DA600A2A2E433FFC43333335480FCEEC3134CA6
:100DB600FED2A100C2A1000DBD08E5C2C400D2A1A9
:090DC60000C2A200D2A200AF0697
:010DCF002201
:100F6500E4FD7F8E120E57E4FCEC90104D93FF7458
:100F7500422CF8E6FD120E570CBC07ED7D807F8EE6
:030F8500020E5702
:100FA500E4FBEB90104693FF120D8674422BF8A6D6
:050FB500070BBB07ED76
:010FBA002214
:100E8C002049444C455F535441544500204144444F
:100E9C005F53544154450020444C455F53544154D6
:0F0EAC00452000204946595F53544154452000CA
:100EC70009262069645F3030302000092F206964CB
:100ED7005F303031200009382069645F30303220BC
:010EE700000A
:1009EF0078177C007D007BFF7A0E798C7E007F0C60
:1009FF001208D01210777F011210087B007A00794D
:100A0F0017E4FDFF120F3D120FA5E546C4540F2446
:100A1F0030FB7D017F01120F88E546540F2430FB18
:100A2F007D017F02120F887B2D7D017F03120F88BE
:100A3F00E545C4540F2430FB7D017F04120F88E578
:100A4F0045540F2430FB7D017F05120F887B2D7DD0
:100A5F00017F06120F88E544C4540F2430FB7D013B
:100A6F007F07120F88E544540F2430FB7D017F0868
:100A7F00120F887B2D7D017F09120F88E543C45427
:100A8F000F2430FB7D017F0A120F88E543540F249A
:100A9F0030FB7D017F0B120F887B2D7D017F0C12A8
:100AAF000F88E542C4540F2430FB7D017F0D120FD8
:100ABF0088E542540F2430FB7D017F0E120F887F93
:040ACF0032020FBB25
:100B5F0078177C007D007BFF7A0E79987E007F0BE3
:100B6F001208D01210777F011210087B007A0079DB
:100B7F0017E4FDFF120F3D20B3257F0A120FBB2094
:100B8F00B31DE54124FB600C14600E2402700A753E
:100B9F0041058008754106800375410430B3FDE5BA
:100BAF0041B404087B007A0079268011E5417B006F
:100BBF00B405067A00792F80047A0079387D01E434
:090BCF00FF120F3D7F32020FBB43
:100BD80078177C007D007BFF7A0E79A37E007F0C5E
:100BE8001208D01210777F011210087B007A007962
:100BF80017E4FDFF120F3D20B3257F0A120FBB201B
:100C0800B31DE54124FB600C14600E2402700A75C4
:100C180041058008754106800375410430B3FDE540
:100C280041B404087B007A0079268011E5417B00F5
:100C3800B405067A00792F80047A0079387D01E4BA
:090C4800FF120F3D7F32020FBBC9
:100EE90078177C007D007BFF7A0E79AF7E007F0C3E
:100EF9001208D07F011210087B007A007917E4FDEF
:0C0F0900FF120F3D7F32120FBB020E14CE
:0F103700758920758DFD758DFDD28E75984022BF
:0B1061008F99E59830E1FB5398FD22C9
:0A106C00E59830E0FB5398FEAF99C1
:011076002257
:100ADF00020CC8E493A3F8E493A34003F68001F259
:100AEF0008DFF48029E493A3F85407240CC8C33318
:100AFF00C4540F4420C8834004F456800146F6DFE7
:100B0F00E4800B0102040810204080900EBBE47EAD
:100B1F00019360BCA3FF543F30E509541FFEE493DB
:100B2F00A360010ECF54C025E060A840B8E493A3A2
:100B3F00FAE493A3F8E493A3C8C582C8CAC583CACD
:100B4F00F0A3C8C582C8CAC583CADFE9DEE780BE85
:010EE8000009
:10080000E709F608DFFA8046E709F208DFFA803EDA
:1008100088828C83E709F0A3DFFA8032E309F608C7
:10082000DFFA8078E309F208DFFA807088828C832F
:10083000E309F0A3DFFA806489828A83E0A3F608E3
:10084000DFFA805889828A83E0A3F208DFFA804CBD
:1008500080D280FA80C680D4806980F28033801094
:1008600080A680EA809A80A880DA80E280CA8033FD
:1008700089828A83ECFAE493A3C8C582C8CCC58375
:10088000CCF0A3C8C582C8CCC583CCDFE9DEE78045
:100890000D89828A83E493A3F608DFF9ECFAA9F0C4
:1008A000EDFB2289828A83ECFAE0A3C8C582C8CC1A
:1008B000C583CCF0A3C8C582C8CCC583CCDFEADE33
:1008C000E880DB89828A83E493A3F208DFF980CC95
:1008D00088F0EF60010E4E60C388F0ED2402B4048E
:1008E0000050B9F582EB2402B4040050AF23234535
:0608F00082239008507302
:1008F600BB010689828A83E0225002E722BBFE0200
:09090600E32289828A83E4932232
:10090F00EF8DF0A4A8F0CF8CF0A428CE8DF0A42EFC
:02091F00FE22B6
:100DD000C2D5E830E70FB2D5E4C39BFBE49AFAE44E
:100DE00099F9E498F8EC30E717B2D5120E0612091B
:100DF0005DE4C39BFBE49AFAE499F9E498F8800374
:100E000012095D30D50DE4C39FFFE49EFEE49DFD15
:040E1000E49CFC2240
:1009210075F008758200EF2FFFEE33FECD33CDCC8D
:1009310033CCC58233C5829BED9AEC99E582984010
:100941000CF582EE9BFEED9AFDEC99FC0FD5F0D6ED
:10095100E4CEFBE4CDFAE4CCF9A88222B800C1B917
:100961000059BA002DEC8BF084CFCECDFCE5F0CB55
:10097100F97818EF2FFFEE33FEED33FDEC33FCEB8E
:1009810033FB10D703994004EB99FB0FD8E5E4F949
:10099100FA227818EF2FFFEE33FEED33FDEC33FC36
:1009A100C933C910D7059BE99A4007EC9BFCE99A2A
:1009B100F90FD8E0E4C9FAE4CCFB2275F010EF2F6F
:1009C100FFEE33FEED33FDCC33CCC833C810D7076F
:1009D1009BEC9AE899400AED9BFDEC9AFCE899F8AA
:0E09E1000FD5F0DAE4CDFBE4CCFAE4C8F9223D
:00000001FF
