:03000000020B25CB
:0C0B2500787FE4F6D8FD758120020B6C8F
:0F10EE0020496E69742073756363657373200006
:050936004200AF0000CB
:1006EF0078587C007D017BFF7A1079EE7E007F0FBA
:1006FF001203AB121118121123121082120F95123E
:10070F001057E4900056F0A3F07FF4120FBF120FB2
:10071F0067500BC2967FF4120FBFD296801D9000C8
:10072F0057E004F07006900056E004F0C3900057B5
:10073F00E09406900056E0940040CE7B017A007959
:10074F0058E4FDFF120ECC7FF4120FBF7FF4120F8F
:10075F00BF9000AFE07002A3E0700512051680F1A4
:10076F009000AFE07004A3E06401700512087A8076
:10077F00E09000AFE07004A3E06402700512018501
:10078F0080CF9000AFE07004A3E064037005120CFB
:10079F00C480BE9000AFE07004A3E0640470051243
:0907AF00041680AD12060B80A8AF
:100FBF00E4FDFCEFFBC3ED9B7480F86C98501200BE
:100FCF0000007E0B7BBEDBFEDEFC0DBD00010C8046
:010FDF00E22F
:010FE00022EE
:0C110B00EFD3940040060000001F80F4A9
:0111170022B5
:07112300D288D2A8D2AF224E
:03000300020BB13C
:100BB100C0E0C0F0C083C082C0D075D000C000C00A
:100BC10001C002C003C004C005C006C00720B24F67
:100BD1007F0A120FBF20B2479000AFE0FEA3E0FFF3
:100BE100EE7032EF14601024FD601F14602724059D
:100BF10070239000AF800C9000AFE4F0A37402F07A
:100C0100900054E4F0A304F080129000AFE4F0A34C
:100C11007405F080079000AFE4F0A3F030B2FDD08E
:100C210007D006D005D004D003D002D001D000D027
:0A0C3100D0D082D083D0F0D0E032A2
:05093B004200B10000C4
:0B111800D2A9758A97758CBDD28C227D
:03000B00020FE100
:100FE100C0E0C083C082758A97758CBD9000B2E065
:100FF10004F070069000B1E004F0D082D083D0E01C
:0110010032BC
:0E10FD0081838587898B8D80828486888A8C8A
:0A0940004700A80000120604091980
:100E9500C2C400C2A100D2C400E4FEEF1392A2EFC7
:100EA500C313FFD2A100C2A1000EEEB408EDE4FE0B
:100EB500ED1392A2EDC313FDD2A100C2A1000EEE67
:060EC500B408EDC2C400F8
:010ECB002204
:100E0700C2C400C2A100D2C400E4FDEF1392A2EF56
:100E1700C313FFD2A100C2A1000DEDB408ED00E499
:100E2700FDA2A2E433FFC43333335480FCEEC31373
:100E37004CFED2A100C2A1000DEDB408E4C2C4006B
:0B0E4700D2A100C2A200D2A200AF06A0
:010E5200227D
:100F9500E4FD7F8E120E95E4FCEC90110493FF7432
:100FA500A82CF582E43400F583E0FD120E950CECD7
:0A0FB500B407E67D807F8E020E95E2
:10100200E4FBEB9010FD93FF120E0774A82BF58200
:0C101200E43400F583EFF00BEBB407E6CC
:01101E0022AF
:100DA8004F4B2100636C6561725F616C6C002E2093
:100DB80020002E2E20002049444C455F53544154B6
:100DC8004500204144445F53544154450020444C5D
:100DD800455F53544154452000204946595F5354B8
:100DE8004154452000696E70757420707764203A0C
:0F0DF80000202020202020206572726F722100C1
:10094A004100A7044100A60049008B2069645F307A
:10095A00303020004900942069645F303031200033
:10096A0049009D2069645F303032200042008900CE
:01097A00007C
:1005160078677C007D017BFF7A0D79BE7E007F0CBB
:100526001203AB7F011210A87B017A007967E4FD04
:10053600FF120ECC1210029000ACE0C4540F24300F
:10054600FB7D017F0112103C9000ACE0540F24307B
:10055600FB7D017F0212103C7B2D7D017F03121073
:100566003C9000ABE0C4540F2430FB7D017F0412A5
:10057600103C9000ABE0540F2430FB7D017F051248
:10058600103C7B2D7D017F0612103C9000AAE0C432
:10059600540F2430FB7D017F0712103C9000AAE027
:1005A600540F2430FB7D017F0812103C7B2D7D010A
:1005B6007F0912103C9000A9E0C4540F2430FB7D43
:1005C600017F0A12103C9000A9E0540F2430FB7DF5
:1005D600017F0B12103C7B2D7D017F0C12103C908D
:1005E60000A8E0C4540F2430FB7D017F0D12103C9F
:1005F6009000A8E0540F2430FB7D017F0E12103CC2
:050606007F32020FBF6E
:10060B0078677C007D017BFF7A0D79CA7E007F0BBA
:10061B001203AB7F011210A87B017A007967E4FD0E
:10062B00FF120ECC20B3487F0A120FBF20B34090AD
:10063B0000A7E024FB600E146019240270229000C6
:10064B00A7740580209000A77406F0900000740238
:10065B00F080199000A77404F0E4900000F0800C77
:10066B009000A77404F09000007401F030B3FD907B
:10067B0000A7E0B404087B017A00798B801390000B
:10068B00A7E07B01B405067A00799480047A00799F
:10069B009D7D01E4FF120ECC20B4447F0A120FBFE4
:1006AB0020B43C30B4FD120F675034900000E0C30F
:1006BB00940A502B1209EEEF64017023900000E0B6
:1006CB0004FF120F025018900000E004F07BFF7A39
:1006DB000D79A87D017F0A120ECC7FD0120FBF7F40
:0406EB0032020FBF09
:1004160078677C007D017BFF7A0D79D57E007F0CA5
:100426001203AB7F011210A87B017A007967E4FD05
:10043600FF120ECC20B3597F0A120FBF20B3519082
:1004460000A7E024FB601114601C146026240370CE
:10045600309000A77405802E9000A77406F09000D7
:10046600007402F080279000A77407F0E490000063
:10047600F0801A9000A77404F0900000740AF080CF
:100486000C9000A77404F09000007401F030B3FDE6
:100496009000A7E0B404087B017A00798B80249051
:1004A60000A7E0B405087B017A00799480159000D6
:1004B600A7E0B406087B017A00799D80067BFF7A67
:1004C6000D79AC7D01E4FF120ECC20B43E7F0A12FA
:1004D6000FBF20B43630B4FD9000A7E024FC24FD05
:1004E6005029600280171210DE7BFF7A0D79A87DF5
:1004F600017F0C120ECC7FDC120FBF800E900053D2
:10050600E02430FB7D017F0412103C7F32020FBFD6
:10087A0078677C007D017BFF7A0D79E17E007F0C31
:10088A001203AB7F011210A87B017A007967E4FD9D
:10089A00FF120ECC120E53900053EFF0C394014096
:1008AA0055E0D394A2504FC2967FE8120FBFD2965A
:1008BA007FE8120FBF900053E024FE600F1460140B
:1008CA00240270247B017A00798B800E7B017A00E6
:1008DA00799480067B017A00799D7D01E4FF120EEE
:1008EA00CC7FDC120FBF800E900053E02430FB7DDA
:1008FA00017F0412103C900053E0F4702AC2967FE4
:10090A0064120FBFD2967F64120FBFC2967F641221
:10091A000FBFD2967F64120FBFC2967F64120FBFB9
:0C092A00D2967F64120FBF7F32020FBF15
:1001850078677C007D017BFF7A0D79ED7E007F0C21
:100195001203AB7F011210A87B017A007967E4FD99
:1001A500FF120ECC900089E07004A3E064036003A5
:1001B500120A909000B3E0FEA3E0FF4E701090008D
:1001C50089E07002A3E070069000890202B9EF642D
:1001D500014E7020900089E07002A3E07016900037
:1001E50089F0A304F09000B3A3E02430FB7D017FE8
:1001F500010202919000B3E07004A3E0640170165F
:10020500900089E07004A3E06401700A900089F011
:10021500A304F00202D69000B3E0FEA3E0FF64035E
:100225004E701E900089E07004A3E0640170129086
:100235000089F0A37402F0EF2430FB7D017F02807A
:100245004B9000B3E07004A3E0640370169000893E
:10025500E07004A3E06402700A900089F0A37402C0
:10026500F0806E9000B3E0FEA3E0FF64044E7023BF
:10027500900089E07004A3E064027017900089F093
:10028500A37403F0EF2430FB7D017F0312103C7F44
:10029500F4803B900089E07004A3E064039000AF14
:1002A5007017F0A37404F0900089E4F0A37403F0D0
:1002B500E49000B3F0A3F08018E4F0A37403F0E435
:1002C500900089F0A3F09000B3F0A3F07F88120F9F
:0602D500BF7F32020FBFE3
:100CC40078687C007D017BFF7A0D79F97E007F0EC8
:100CD4001203AB7F011210A87B017A007968E4FD4E
:100CE400FF120ECCE4900067F0900067E0FFC3941D
:100CF40009503BEF75F00384E5F0700B7BFF7A0D30
:100D040079B67D01FF8017900067E075F00384AF2A
:100D1400F0BF01127BFF7A0D79BA7D017F01120EBB
:100D2400CC7FE8120FBF900067E004F080BBE49032
:050D340000AFF0A3F088
:010D39002297
:100A900043B06053B0E7E5B05460FF900074E4F0F9
:100AA000A3EFF0900074E0FEA3E0FF64604E60747A
:100AB000EF64604E606E7F0A120FBF900074E0FE1C
:100AC000A3E0FFEE701CEF24E0600E24E0701390B2
:100AD00000B3E4F0A304F080099000B3E4F0A37441
:100AE00002F053B09F43B0187F0A120FBFE5B05415
:100AF00018FF7E00EE7028EF24F060152408701FA8
:100B00009000B3E0FFA3E09000B3CFF0A3EFF0803C
:100B10000E9000B4E02402F09000B3E03400F0E462
:040B2000900073F0DE
:010B240022AE
:1007B8001001FFFFFFFF0100071200000000001AF0
:1007C8000C01FFFFFFFF01000301000500000D0100
:1007D800FFFFFFFF01000402010008000D01FFFFF9
:1007E800FFFF01000402020009001101FFFFFFFFE3
:1007F8000100080401000000650073000C01FFFF00
:10080800FFFF01000305000900000F01FFFFFFFFC4
:1008180001000606020000000F000D01FFFFFFFFA8
:100828000100041900001E002D01FFFFFFFF010059
:100838002418000000000000000000000000000074
:1008480000000000000000000000000000000000A0
:10085800000000003D001001FFFFFFFF0100070C32
:100868000000000100150C01FFFFFFFF0100030D50
:0208780000116D
:10097B00410054004100000041005300420051006F
:10098B0000C100C101C1025000411001FFFFFFFF78
:10099B000100071300000000001B410055006040E0
:1009AB00000100000000000000000000000000003B
:1009BB00000000000000000000000000000000002C
:1009CB00000000000000000000000000000000001C
:1009DB00000000000000000000000000000000000C
:0209EB0000000A
:0B0C3B00900080EBF0A3EAF0A3E9F0CA
:100C4600E4A3F0A3F0A3F0A3F0A3F0A3F07FEF12C8
:100C5600101F7F6412110B7F0112101F7F64121187
:100C66000B900080E0FBA3E0FAA3E0F91203D1FFAA
:100C7600900081E475F0011203EA900081E475F0BA
:100C8600011203EAEF14900083F0900083E0640100
:100C96006029900080E0FBA3E475F001120400A92E
:100CA600F0FA1203D1900085F0E0FF12101F7F6466
:0D0CB60012110B900083E014F080CF7F013D
:010CC300220E
:04000E007BFF7D3CBB
:0E001200900076EBF0A3EAF0A3E9F0A3EDF086
:10002000E4A3F0A3F0A3F0A3F0A3F0A3F0C203C2F3
:1000300004C205900076E0FBA3E0FAA3E0F9120CFD
:100040003BD203E4900055F07B4074002BF582E432
:100050003400F583E4F0DBF2200303020182C203E3
:10006000C204C205E4FB9000B1F0A3F0E59A20E0E1
:100070000302015F90007AE59BF0539AFEE0FFB423
:10008000EF1220040FE4FB900001EFF090007E746B
:1000900001F080D890007EE0FF6401702E90007A1D
:1000A000E0FE6401600EE490007EF0C203C204C270
:1000B00005FB80B890007E7402F00B74012BF58272
:1000C000E43400F583EEF0D20480A1EF6402600313
:1000D00002015F20040302015F0B90007AE0FF74CD
:1000E000012BF582E43400F583EFF0EBC394064076
:1000F0001474012BF582E43400F583E0FF90007F57
:10010000E0FEEF2EF0EBB4080A900009E090007DCD
:10011000F0D20530054990007DE02408FFE433FE6D
:10012000EB6F7001EE703874002BF582E43400F54B
:1001300083E0FF90007FE0C39FFF74012BF582E412
:100140003400F583E0FEC3EF9EFF90007FF0EE6F7A
:100150006004C2038002D203E490007EF0801E900F
:100160000079E0FFD39000B2E09F9000B1E09400EE
:10017000500BEB943F500620000302006C9000559A
:04018000EBF0A203FB
:010184002258
:100F6700E4900072F07B017A0079417D141200123F
:100F7700500F900055E0B40B0890000AE07002D3C0
:0D0F870022900072E004F0E0C3940240D814
:010F9400223A
:1010DE007FC8120FBF7BFF7A08796E7D3202001235
:10106D009000B5EFF07FC8120FBF7BFF7A08796E45
:05107D007D32020012AB
:100D3A00900075EFF07BFF7A0779C87D591200128F
:100D4A005056900055E0640B704E90000AE07048CF
:100D5A00900075E06401701C7A0779D612000E5073
:100D6A0010900055E0B40B0990000AE070037F016F
:100D7A00227F0022900075E06402701F7A0779E4EE
:100D8A0012000E5010900055E0B40B0990000AE0D2
:0E0D9A0070037F01227F00227F00227F002253
:100F36007BFF7A0779F27D3C120012502290005511
:100F4600E0B40F1B90000AE07015A3E0FEA3E07C5E
:100F5600002400FFEC3E900051F0A3EFF0D322C333
:010F66002268
:100E5300E4900073F0A3F0900074E0C39414502F57
:100E63007F01120D3ABF0117120F36E433FF9000D2
:100E730073F0BF0107900051A3E0FF227FFF229090
:100E83000074E004F0900054E060CCE4F0FF227FB3
:010E9300005E
:010E9400223B
:100F0200E4FEEE90081293FD74012EF582E43400A3
:100F1200F583EDF00EEEB410E990000DEFF09000C5
:100F22000FE02FF07B017A0079017D46120012500A
:030F32000122C3D6
:010F35002299
:1009EE00E4900072F0A3F07F01120D3A900072EFC6
:1009FE00F0BF010EE4A3F0C2967F64120FBFD29631
:100A0E008013900072E070DFA3E004F0E0C394283E
:100A1E0040D57F00227FD0120FBF7F02120D3A9079
:100A2E000072EFF0640170467BFF7A0879047D282E
:100A3E001200125012900055E0B40B0B90000AE019
:100A4E007005FE7F0180047E007F00EF64014E7012
:100A5E001AC2967FE8120FBFD2967FE8120FBFC25E
:100A6E00967FE8120FBFD2967F01227F0022900060
:100A7E0072E0B401A5A3E004F0E0C39419409B7F9B
:010A8E000067
:010A8F002244
:101096007580FFC2C2D2C1D2B7AF80C2B7EF20E718
:0110A600F653
:0110A7002226
:1010A800AE07121096C2C2C2C1AF068F80D2B7C2B5
:0210B800B7225D
:1010BA00AE07121096D2C2C2C1AF068F80D2B7C293
:0210CA00B7224B
:1010CC00ED7004AC078004EF2440FCEC4480FF027C
:0210DC0010A85A
:10103C00ED5401FDEF540FFFED6004EF4440FFEF62
:0B104C004480FF1210A8AF030210BA8E
:100ECC00900076EBF0A3EAF0A3E9F01210CC9000BE
:100EDC0076E0FBA3E0FAA3E0F91203D160179000CF
:100EEC0076A3E475F001120400A9F0FA1203D1FF05
:060EFC001210BA80D92299
:101082007F381210A87F0C1210A87F061210A87FBA
:04109200010210A89F
:10105700538EEF438E01438E0475D6FF75D7D04369
:061067008E10439A1022D6
:10101F008F9BE59A70047F0180027F00EF20E1F241
:0D102F007F0A12110B539AFD7F1402110B62
:100B31000206EFE493A3F8E493A34003F68001F2E5
:100B410008DFF48029E493A3F85407240CC8C333C5
:100B5100C4540F4420C8834004F456800146F6DF94
:100B6100E4800B0102040810204080900936E47EE5
:100B7100019360BCA3FF543F30E509541FFEE49389
:100B8100A360010ECF54C025E060A840B8E493A350
:100B9100FAE493A3F8E493A3C8C582C8CAC583CA7B
:100BA100F0A3C8C582C8CAC583CADFE9DEE780BE33
:0109ED000009
:1002DB00E709F608DFFA8046E709F208DFFA803E05
:1002EB0088828C83E709F0A3DFFA8032E309F608F2
:1002FB00DFFA8078E309F208DFFA807088828C835A
:10030B00E309F0A3DFFA806489828A83E0A3F6080D
:10031B00DFFA805889828A83E0A3F208DFFA804CE7
:10032B0080D280FA80C680D4806980F280338010BE
:10033B0080A680EA809A80A880DA80E280CA803327
:10034B0089828A83ECFAE493A3C8C582C8CCC5839F
:10035B00CCF0A3C8C582C8CCC583CCDFE9DEE7806F
:10036B000D89828A83E493A3F608DFF9ECFAA9F0EE
:10037B00EDFB2289828A83ECFAE0A3C8C582C8CC44
:10038B00C583CCF0A3C8C582C8CCC583CCDFEADE5D
:10039B00E880DB89828A83E493A3F208DFF980CCBF
:1003AB0088F0EF60010E4E60C388F0ED2402B404B8
:1003BB000050B9F582EB2402B4040050AF2323455F
:0603CB00822390032B7356
:1003D100BB010689828A83E0225002E722BBFE022A
:0903E100E32289828A83E493225D
:1003EA00C5F0F8A3E028F0C5F0F8E582158270029E
:0603FA001583E038F0223B
:10040000A3F8E0C5F025F0F0E582158270021583AF
:06041000E0C838F0E8220C
:00000001FF
