:03000000020AD31E
:0C0AD300787FE4F6D8FD75812F020B1A25
:0F0FA70020496E6974207375636365737320004E
:100C370078087C007D007BFF7A0F79A77E007F0F05
:100C47001208D0120FDE120F4F120EE47B007A004B
:100C57007908E4FDFF120EBC7FF4120F3A7FF412FD
:100C67000F3AE52E452D70051209EF80F5E52E6444
:100C770001452D7005120E3D80E8E52E6402452DD5
:0C0C87007005120E1180DB120DE580D606
:010FFC0022D2
:010FFD0022D1
:030FF300C2962281
:030FF600D296226E
:100D6D007D017F32120BD8E52FD3940250028022E1
:100D7D00E52FD3940450028023E52FD3940850021D
:100D8D008010E52FD3940A50028011E52FD3940CD7
:100D9D005003020FF3E52FC394145003020FF6E432
:030DAD00F52F22FD
:100E94007D017F32120BD8E52FD3940550028011C7
:100EA400E52FD3940F5003020FF6E52FD39414507B
:080EB40003020FF3E4F52F2205
:0A0FE900E4FD7F32120BD8020FF670
:100F3A00EFD39400400E0000007E0B7DBEDDFEDE86
:040F4A00FC1F80EC1C
:010F4E002280
:0C0FC400EFD3940040060000001F80F4F2
:010FD00022FE
:0B0FDE00D288D2A8D28AD2AAD2AF22B9
:03000300020B5F8E
:100B5F00C0E0C0F0C083C082C0D075D000C000C05C
:100B6F0001C002C003C004C005C006C00720B23ECA
:100B7F007F0A120F3A20B236E52D7029E52E146048
:100B8F000C1460111460042403701A8010752D006A
:100B9F00752E028016752D00752E03800E752D0093
:100BAF00752E018006752D00752E0030B2FDD00711
:100BBF00D006D005D004D003D002D001D000D0D0C1
:090BCF00D082D083D0F0D0E032D6
:03001300020C9349
:100C9300C0E0C0F0C083C082C0D075D000C000C027
:100CA30001C002C003C004C005C006C00720B311C1
:100CB3007F0A120F3A20B309752D00752E0030B349
:100CC300FDD007D006D005D004D003D002D001D088
:0C0CD30000D0D0D082D083D0F0D0E0322E
:100F63007580FFC2C2D2C1D2B7AF80C2B7EF20E74C
:010F7300F687
:010F7400225A
:100F8700AE07120F63C2C2C2C18E80D2B7C2B722E8
:100F9700AE07120F63D2C2C2C18E80D2B7C2B722C8
:100F7500ED7004AC078004EF2440FCEC4480FF02D4
:020F85000F87D4
:100F0700AE07AC0353050153060FED6003430640DC
:0D0F1700430680AF06120F87AF04020F974C
:100EBC008B238A248925120F75AB23AA24A925120A
:100ECC0008F660130525E5257002052414F91208AF
:080EDC00F6FF120F9780E222DD
:100F4F007F38120F877F0C120F877F06120F877F54
:040F5F0001020F87F5
:030FD100012F00ED
:100BD8008F238D24E4F589AF23FE7C277D1012092D
:100BE8000FE4C39FFFE49EFE74019400FDE49400AB
:100BF800FCE4FB7A01F9F8120D298F8CAF237E00F3
:100C08007C277D1012090FE4C39FFFE49EFE740148
:100C18009400FDE49400FCE4FB7A01F9F8120D2934
:0F0C2800AF038F8AE52424FF928CD2AFD2A9228A
:03000B00020FF9E8
:030FF900052F328F
:0E0FB60081838587898B8D80828486888A8CD2
:090FD400072600001206040919A9
:100DB000C2C400C2A100D2C400E4FEEF1392A2EFAD
:100DC000C313FFD2A100C2A1000EBE08EEE4FEEDE7
:100DD0001392A2EDC313FDD2A100C2A1000EBE0862
:040DE000EEC2C4009B
:010DE40022EC
:100CDF00C2C400C2A100D2C400E4FDEF1392A2EF80
:100CEF00C313FFD2A100C2A1000DBD08EE00E4FDA9
:100CFF00A2A2E433FFC43333335480FCEEC3134C4E
:100D0F00FED2A100C2A1000DBD08E5C2C400D2A150
:090D1F0000C2A200D2A200AF063E
:010D280022A8
:100EE400E4FD7F8E120DB0E4FCEC900FBD93FF7413
:100EF400262CF8E6FD120DB00CBC07ED7D807F8E2C
:030F0400020DB02B
:100F2400E4FBEB900FB693FF120CDF74262BF8A6AC
:050F3400070BBB07EDF7
:010F39002295
:100E69002049444C455F5354415445002041444472
:100E79005F535441544500444C455F5354415445D4
:0B0E8900004946595F53544154450096
:1009EF0078177C007D007BFF7A0E79697E007F0C83
:1009FF001208D07F01120F877B007A007917E4FD70
:100A0F00FF120EBC120F24E52AC4540F2430FB7DB5
:100A1F00017F01120F07E52A540F2430FB7D017F60
:100A2F0002120F077B2D7D017F03120F07E529C4EB
:100A3F00540F2430FB7D017F04120F07E529540F5B
:100A4F002430FB7D017F05120F077B2D7D017F0673
:100A5F00120F07E528C4540F2430FB7D017F0712C6
:100A6F000F07E528540F2430FB7D017F08120F0775
:100A7F007B2D7D017F09120F07E527C4540F24300A
:100A8F00FB7D017F0A120F07E527540F2430FB7DF2
:100A9F00017F0B120F077B2D7D017F0C120F07E5D6
:100AAF0026C4540F2430FB7D017F0D120F07E5265E
:100ABF00540F2430FB7D017F0E120F077F32120F70
:040ACF003A020FE9EF
:100DE50078177C007D007BFF7A0E79757E007F0B7E
:100DF5001208D07F01120F877B007A007917E4FD76
:0C0E0500FF120EBC7F32120F3A020FE900
:100E110078177C007D007BFF7A0E79807E007F0A47
:100E21001208D07F01120F877B007A007917E4FD49
:0C0E3100FF120EBC7F32120F3A020FE9D4
:100E3D0078177C007D007BFF7A0E798A7E007F0A11
:100E4D001208D07F01120F877B007A007917E4FD1D
:0C0E5D00FF120EBC7F32120F3A020D6D26
:100ADF00020C37E493A3F8E493A34003F68001F2EA
:100AEF0008DFF48029E493A3F85407240CC8C33318
:100AFF00C4540F4420C8834004F456800146F6DFE7
:100B0F00E4800B0102040810204080900FD1E47E96
:100B1F00019360BCA3FF543F30E509541FFEE493DB
:100B2F00A360010ECF54C025E060A840B8E493A3A2
:100B3F00FAE493A3F8E493A3C8C582C8CAC583CACD
:100B4F00F0A3C8C582C8CAC583CADFE9DEE780BE85
:010FDD000013
:10080000E709F608DFFA8046E709F208DFFA803EDA
:1008100088828C83E709F0A3DFFA8032E309F608C7
:10082000DFFA8078E309F208DFFA807088828C832F
:10083000E309F0A3DFFA806489828A83E0A3F608E3
:10084000DFFA805889828A83E0A3F208DFFA804CBD
:1008500080D280FA80C680D4806980F28033801094
:1008600080A680EA809A80A880DA80E280CA8033FD
:1008700089828A83ECFAE493A3C8C582C8CCC58375
:10088000CCF0A3C8C582C8CCC583CCDFE9DEE78045
:100890000D89828A83E493A3F608DFF9ECFAA9F0C4
:1008A000EDFB2289828A83ECFAE0A3C8C582C8CC1A
:1008B000C583CCF0A3C8C582C8CCC583CCDFEADE33
:1008C000E880DB89828A83E493A3F208DFF980CC95
:1008D00088F0EF60010E4E60C388F0ED2402B4048E
:1008E0000050B9F582EB2402B4040050AF23234535
:0608F00082239008507302
:1008F600BB010689828A83E0225002E722BBFE0200
:09090600E32289828A83E4932232
:10090F00EF8DF0A4A8F0CF8CF0A428CE8DF0A42EFC
:02091F00FE22B6
:100D2900C2D5E830E70FB2D5E4C39BFBE49AFAE4F5
:100D390099F9E498F8EC30E717B2D5120D5F12096A
:100D49005DE4C39BFBE49AFAE499F9E498F880031B
:100D590012095D30D50DE4C39FFFE49EFEE49DFDBD
:040D6900E49CFC22E8
:1009210075F008758200EF2FFFEE33FECD33CDCC8D
:1009310033CCC58233C5829BED9AEC99E582984010
:100941000CF582EE9BFEED9AFDEC99FC0FD5F0D6ED
:10095100E4CEFBE4CDFAE4CCF9A88222B800C1B917
:100961000059BA002DEC8BF084CFCECDFCE5F0CB55
:10097100F97818EF2FFFEE33FEED33FDEC33FCEB8E
:1009810033FB10D703994004EB99FB0FD8E5E4F949
:10099100FA227818EF2FFFEE33FEED33FDEC33FC36
:1009A100C933C910D7059BE99A4007EC9BFCE99A2A
:1009B100F90FD8E0E4C9FAE4CCFB2275F010EF2F6F
:1009C100FFEE33FEED33FDCC33CCC833C810D7076F
:1009D1009BEC9AE899400AED9BFDEC9AFCE899F8AA
:0E09E1000FD5F0DAE4CDFBE4CCFAE4C8F9223D
:00000001FF
